:020000040800F2
:10000000005000204D2E0008812D0008832D00088F
:10001000852D0008872D0008892D000800000000AC
:100020000000000000000000000000008B2D000810
:100030008D2D0008000000008F2D0008912D000874
:10004000952E0008952E0008952E0008952E000884
:10005000952E0008952D0008952E0008952E000875
:10006000952E0008952E0008952E0008952E000864
:10007000952E0008952E0008952E0008952E000854
:10008000952E0008952E0008952E0008992D000841
:10009000A52D0008952E0008952E0008952E000825
:1000A000A92D0008B52D0008B92D0008BD2D0008A8
:1000B000C12D0008952E0008952E0008CD2D0008B2
:1000C000D92D0008E52D0008F12D0008FD2D0008B0
:1000D000952E0008952E0008952E0008952E0008F4
:1000E000952E0008952E0008952E000800000000AF
:1000F0000000000000000000000000000000000000
:0C01000000000000000000005FF808F1A3
:1001100010B5054C237833B9044B13B10448AFF341
:1001200000800123237010BD300200200000000079
:1001300000BC000808B5034B1BB103490348AFF3EB
:10014000008008BD000000003402002000BC000850
:10015000034613F8012B002AFBD1181A0138704707
:1001600081F0004102E000BF83F0004330B54FEA68
:1001700041044FEA430594EA050F08BF90EA020FD5
:100180001FBF54EA000C55EA020C7FEA645C7FEA68
:10019000655C00F0E2804FEA5454D4EB5555B8BF8B
:1001A0006D420CDD2C4480EA020281EA030382EAFC
:1001B000000083EA010180EA020281EA0303362D8E
:1001C00088BF30BD11F0004F4FEA01314FF4801C61
:1001D0004CEA113102D0404261EB410113F0004F73
:1001E0004FEA03334CEA133302D0524263EB43032A
:1001F00094EA050F00F0A780A4F10104D5F1200EC8
:100200000DDB02FA0EFC22FA05F2801841F1000122
:1002100003FA0EF2801843FA05F359410EE0A5F1F6
:1002200020050EF1200E012A03FA0EFC28BF4CF027
:10023000020C43FA05F3C01851EBE37101F00045DD
:1002400007D54FF0000EDCF1000C7EEB00006EEBEA
:100250000101B1F5801F1BD3B1F5001F0CD3490874
:100260005FEA30004FEA3C0C04F101044FEA4452CB
:1002700012F5800F80F09A80BCF1004F08BF5FEA52
:10028000500C50F1000041EB045141EA050130BD32
:100290005FEA4C0C404141EB0101013C28BFB1F544
:1002A000801FE9D291F0000F04BF01460020B1FA8F
:1002B00081F308BF2033A3F10B03B3F120020CDA62
:1002C0000C3208DD02F1140CC2F10C0201FA0CF040
:1002D00021FA02F10CE002F11402D8BFC2F1200CA5
:1002E00001FA02F120FA0CFCDCBF41EA0C0190405B
:1002F000E41AA2BF01EB0451294330BD6FEA0404A4
:100300001F3C1CDA0C340EDC04F11404C4F120028E
:1003100020FA04F001FA02F340EA030021FA04F3A0
:1003200045EA030130BDC4F10C04C4F1200220FAF7
:1003300002F001FA04F340EA0300294630BD21FA35
:1003400004F0294630BD94F0000F83F4801306BFFB
:1003500081F480110134013D4EE77FEA645C18BFEF
:100360007FEA655C29D094EA050F08BF90EA020F86
:1003700005D054EA000C04BF1946104630BD91EA7E
:10038000030F1EBF0021002030BD5FEA545C05D181
:100390004000494128BF41F0004130BD14F58004C0
:1003A0003CBF01F5801130BD01F0004545F0FE4134
:1003B00041F470014FF0000030BD7FEA645C1ABF69
:1003C000194610467FEA655C1CBF0B46024650EAA0
:1003D000013406BF52EA033591EA030F41F40021CC
:1003E00030BD00BF90F0000F04BF0021704730B552
:1003F0004FF4806404F132044FF000054FF0000127
:1004000050E700BF90F0000F04BF0021704730B5E7
:100410004FF4806404F1320410F0004548BF4042BC
:100420004FF000013EE700BF42004FEAE2014FEA11
:1004300031014FEA02701FBF12F07F4393F07F4FEC
:1004400081F06051704732F07F4208BF704793F0EF
:100450007F4F04BF41F40021704730B54FF4607402
:1004600001F0004521F000411CE700BF50EA010205
:1004700008BF704730B54FF000050AE050EA0102AE
:1004800008BF704730B511F0004502D5404261EB1E
:1004900041014FF4806404F132045FEA915C3FF45F
:1004A000D8AE4FF003025FEADC0C18BF03325FEAFC
:1004B000DC0C18BF033202EBDC02C2F1200300FAAD
:1004C00003FC20FA02F001FA03FE40EA0E0021FAD2
:1004D00002F11444BDE600BF70B54FF0FF0C4CF4C0
:1004E000E06C1CEA11541DBF1CEA135594EA0C0F72
:1004F00095EA0C0F00F0DEF82C4481EA030621EAAD
:100500004C5123EA4C5350EA013518BF52EA0335E7
:1005100041F4801143F4801338D0A0FB02CE4FF099
:100520000005E1FB02E506F00042E0FB03E54FF0C9
:100530000006E1FB03569CF0000F18BF4EF0010EC1
:10054000A4F1FF04B6F5007F64F5407404D25FEABD
:100550004E0E6D4146EB060642EAC62141EA555170
:100560004FEAC52040EA5E504FEACE2EB4F1FD0CB2
:1005700088BFBCF5E06F1ED8BEF1004F08BF5FEA30
:10058000500E50F1000041EB045170BD06F00046E2
:1005900046EA010140EA020081EA0301B4EB5C048F
:1005A000C2BFD4EB0C0541EA045170BD41F4801187
:1005B0004FF0000E013C00F3AB8014F1360FDEBFAC
:1005C000002001F0004170BDC4F10004203C35DA88
:1005D0000C341BDC04F11404C4F1200500FA05F30B
:1005E00020FA04F001FA05F240EA020001F00042AC
:1005F00021F0004110EBD37021FA04F642EB060122
:100600005EEA430E08BF20EAD37070BDC4F10C044B
:10061000C4F1200500FA04F320FA05F001FA04F20F
:1006200040EA020001F0004110EBD37041F10001FB
:100630005EEA430E08BF20EAD37070BDC4F1200506
:1006400000FA05F24EEA020E20FA04F301FA05F26E
:1006500043EA020321FA04F001F0004121FA04F216
:1006600020EA020000EBD3705EEA430E08BF20EAE6
:10067000D37070BD94F0000F0FD101F00046400020
:1006800041EB010111F4801F08BF013CF7D041EAA2
:10069000060195F0000F18BF704703F000465200A6
:1006A00043EB030313F4801F08BF013DF7D043EA77
:1006B0000603704794EA0C0F0CEA135518BF95EA2D
:1006C0000C0F0CD050EA410618BF52EA4306D1D1B4
:1006D00081EA030101F000414FF0000070BD50EAD3
:1006E000410606BF1046194652EA430619D094EA5D
:1006F0000C0F02D150EA013613D195EA0C0F05D147
:1007000052EA03361CBF104619460AD181EA03019A
:1007100001F0004141F0FE4141F470014FF0000052
:1007200070BD41F0FE4141F4780170BD70B54FF0ED
:10073000FF0C4CF4E06C1CEA11541DBF1CEA13556D
:1007400094EA0C0F95EA0C0F00F0A7F8A4EB05044F
:1007500081EA030E52EA03354FEA013100F0888046
:100760004FEA03334FF0805545EA131343EA12630F
:100770004FEA022245EA111545EA10654FEA0026C4
:100780000EF000419D4208BF964244F1FD0404F57D
:10079000407402D25B084FEA3202B61A65EB0305D9
:1007A0005B084FEA32024FF480104FF4002CB6EB96
:1007B000020E75EB030E22BFB61A754640EA0C0016
:1007C0005B084FEA3202B6EB020E75EB030E22BF56
:1007D000B61A754640EA5C005B084FEA3202B6EB97
:1007E000020E75EB030E22BFB61A754640EA9C0056
:1007F0005B084FEA3202B6EB020E75EB030E22BF26
:10080000B61A754640EADC0055EA060E18D04FEAE3
:10081000051545EA16754FEA06164FEAC30343EA83
:1008200052734FEAC2025FEA1C1CC0D111F4801F50
:100830000BD141EA00014FF000004FF0004CB6E749
:1008400011F4801F04BF01430020B4F1FD0C88BFE8
:10085000BCF5E06F3FF6AFAEB5EB030C04BFB6EBF3
:10086000020C5FEA500C50F1000041EB045170BDE6
:100870000EF0004E4EEA113114EB5C04C2BFD4EB13
:100880000C0541EA045170BD41F480114FF0000E97
:10089000013C90E645EA060E8DE60CEA135594EA13
:1008A0000C0F08BF95EA0C0F3FF43BAF94EA0C0F16
:1008B0000AD150EA01347FF434AF95EA0C0F7FF48B
:1008C00025AF104619462CE795EA0C0F06D152EADF
:1008D00003353FF4FDAE1046194622E750EA4106C3
:1008E00018BF52EA43067FF4C5AE50EA41047FF4D4
:1008F0000DAF52EA43057FF4EBAE12E74FF0FF3C39
:1009000006E000BF4FF0010C02E000BF4FF0010C09
:100910004DF804CD4FEA410C7FEA6C5C4FEA430C82
:1009200018BF7FEA6C5C1BD001B050EA410C0CBFD1
:1009300052EA430C91EA030F02BF90EA020F002033
:10094000704710F1000F91EA030F58BF994208BF9A
:1009500090422CBFD8176FEAE37040F00100704757
:100960004FEA410C7FEA6C5C02D150EA013C07D1AE
:100970004FEA430C7FEA6C5CD6D152EA033CD3D0F9
:100980005DF8040B704700BF8446104662468C46F3
:100990001946634600E000BF01B5FFF7B7FF002826
:1009A00048BF10F1000F01BD4DF808EDFFF7F4FF4F
:1009B0000CBF012000205DF808FB00BF4DF808EDDA
:1009C000FFF7EAFF34BF012000205DF808FB00BFFD
:1009D0004DF808EDFFF7E0FF94BF012000205DF81F
:1009E00008FB00BF4DF808EDFFF7CEFF94BF0120D4
:1009F00000205DF808FB00BF4DF808EDFFF7C4FFCD
:100A000034BF012000205DF808FB00BF4FEA410C15
:100A10007FEA6C5C02D150EA013C0AD14FEA430CF8
:100A20007FEA6C5C02D152EA033C02D14FF0000035
:100A300070474FF0010070474FEA410212F5001273
:100A400015D211D56FF47873B3EB625212D94FEA15
:100A5000C12343F0004343EA505311F0004F23FAFF
:100A600002F018BF404270474FF00000704750EA54
:100A7000013005D111F0004008BF6FF00040704711
:100A80004FF00000704700BF7BB972B90029BEBFAC
:100A900000204FF0004106E008BF00281CBF6FF0A7
:100AA00000414FF0FF3000F0D7B9ADF1080C6DE90F
:100AB00004CE002909DB002B1ADB00F04DF8DDF82D
:100AC00004E0DDE9022304B07047404261EB4101DC
:100AD000002B1BDB00F040F8DDF804E0DDE9022329
:100AE00004B0404261EB4101524263EB4303704763
:100AF000524263EB430300F02FF8DDF804E0DDE938
:100B0000022304B0404261EB41017047524263EB63
:100B1000430300F021F8DDF804E0DDE9022304B02E
:100B2000524263EB4303704753B94AB9002908BFE7
:100B300000281CBF4FF0FF314FF0FF3000F08CB9A0
:100B4000ADF1080C6DE904CE00F006F8DDF804E024
:100B5000DDE9022304B070472DE9F047089D8E4679
:100B600004468846002B4AD18A42174662D9B2FA17
:100B700082F64EB1C6F1200301FA06F820FA03F31B
:100B8000B74043EA0808B4404FEA174EB8FBFEF1FD
:100B90001FFA87FC0EFB118801FB0CF2230C43EAC1
:100BA00008439A4209D9FB1801F1FF3080F0EB802D
:100BB0009A4240F2E88002393B449A1AB2FBFEF0B6
:100BC0000EFB102200FB0CFCA3B243EA02439C453F
:100BD00009D9FB1800F1FF3280F0D7809C4540F224
:100BE000D4803B44023840EA01400021A3EB0C03CF
:100BF0001DB10022F340C5E90032BDE8F0878B4209
:100C000005D90DB1C5E9000100210846F5E7B3FAA1
:100C100083F1002946D1734502D3824200F2088154
:100C2000841A6EEB030201209046002DE5D0C5E941
:100C30000048E2E7002A00F09180B2FA82F6002E26
:100C400040F0A5808A1A0121030C4FEA174E80B2AA
:100C5000BCB2B2FBFEFC0EFB1C2243EA024304FBC7
:100C60000CF29A4207D9FB180CF1FF3802D29A42D3
:100C700000F2E380C4469B1AB3FBFEF20EFB123374
:100C800002FB04F440EA03439C4207D9FB1802F13B
:100C9000FF3002D29C4200F2CD8002461B1B42EA8A
:100CA0000C40A5E7C1F120068B4022FA06F71F434E
:100CB0002EFA06FA4FEA1749BAFBF9F80EFA01FEC6
:100CC00020FA06F309FB18AA1FFA87FC43EA0E0371
:100CD00000FA01FE08FB0CF01C0C44EA0A44A04296
:100CE00002FA01F20AD93C1908F1FF3A80F09E801D
:100CF000A04240F29B80A8F102083C44241A98B21A
:100D0000B4FBF9F309FB134403FB0CFC40EA044475
:100D1000A44509D93C1903F1FF3080F08580A44532
:100D200040F28280023B3C4443EA0840A4EB0C04BE
:100D3000A0FB028C64454346E14664D361D05DB1BB
:100D4000BEEB030264EB090404FA06F622FA01F38F
:100D50001E43CC40C5E9006400214EE7B1FBF2FC24
:100D6000010C41EA0E4180B240EA01423B46B1FB30
:100D7000F7F138463C46B846BE462026A2EB0802AC
:100D800041EA0C4165E7014617E710462BE7C6F13B
:100D900020012EFA01FCB7400EFA06FE20FA01F1FE
:100DA00041EA0E014FEA174EBCFBFEF8BCB20EFB47
:100DB00018CC08FB04F90A0C42EA0C42B0409145F9
:100DC0004FEA104380B23ED9BA1808F1FF3C01D275
:100DD00091451FD8A2EB0902B2FBFEF909FB04F80A
:100DE0000EFB192A8AB242EA0A42424529D2BA18AF
:100DF00009F1FF31C2D24245C0D2A9F102013A4401
:100E0000BCE7C6459BD2B8EB02036CEB070C01387C
:100E1000E14694E7A7EB09094A44B2FBFEF9A8F1C1
:100E2000020C09FB04F8DBE703467DE7D04665E7E3
:100E30000846FAE63B44023A30E7ACF1020C3B4488
:100E400019E749469AE7A2EB0902B2FBFEF9C4464C
:100E500009FB04F8C4E700BF704700BF0122014B43
:100E60001A707047510600200022014B1A7070471B
:100E70005106002000221021014802F06FBC00BF83
:100E80000008014001221021014802F067BC00BFA8
:100E9000000801400A464FF0FF330146014805F0C3
:100EA0003BBC00BF0C07002007B501210DF1070076
:100EB000FFF7F0FF9DF8070003B05DF804FB0000AA
:100EC0000A464FF0FF330146014805F079BA00BFEA
:100ED0000C07002007B501218DF807000DF1070070
:100EE000FFF7EEFF03B05DF804FB000002460B4B7A
:100EF00040B919684FF47A735943642081FB0001AB
:100F000001F05EBC01284FF47A7002D15968414368
:100F1000F3E79968022241436420EFE7700600205E
:100F20007FB560B101AA002316460A2400280BDC15
:100F30001A46481E013A11D20022CA5402E0302358
:100F400048700B7004B070BD90FBF4F504FB150005
:100F5000303002F8010B01332846E7E7B45C00F8B3
:100F6000014FE7E7034BD3F8000C034BC31A584279
:100F70005841704700F00108EFBEADDE08B50246EB
:100F8000FFF7F0FF18B910605060906008BD034B88
:100F900003CB106051601868F7E700BF04FC01083C
:100FA000F0B58BB0054602F001FA0023029301234D
:100FB000124C01A902A8CDE9044302F0A1FA104B9A
:100FC00028686968069307AB03C3A8680D4F1860CB
:100FD00006AE56F8045B21460023AAB2012002F0B7
:100FE0002BFAA11C002301202A0C043402F024FA5D
:100FF000BC42EED102F0ECF90BB0F0BD00FC0108F0
:10100000EFBEADDE20FC010837B501210125214CE2
:10101000084602F019F8002001F066FF94E80E007F
:101020001D48009501F0FAFF94E80E001B4800955A
:1010300001F0F4FF94E80E001948009501F0EEFF6E
:101040000A21284602F000F894E80E0015480095A1
:1010500001F0E4FF94E80E001048009501F0DEFF77
:10106000114B1B7853B994E80E001048009501F01D
:10107000D5FF03B0BDE8304001F042BF012B07BFF0
:1010800000930B480B4800950CBF94E80E0094E8C1
:101090000E00ECE788BD00085606002018BC0008CA
:1010A0005D06002064060020540600201CBC0008D9
:1010B00020BC000824BC000801212DE9F04F08469F
:1010C00085B05C4D01F0C0FF5B4F002001F00CFFCC
:1010D0002878DFF868813B78C0EBC0004044002BE3
:1010E0003DD1FFF735F801270646554CDFF85491FE
:1010F000052E2CDD94E80E00012628780096C0EB22
:10110000C000404401F08AFF94E80E004E4800966B
:1011100001F084FF4D4B4E4800960ECB01F07EFF50
:101120002A784C4B53F822304B4A934275D1122106
:101130004D2001F089FF0122414B484800920ECB1F
:1011400001F06CFF05B0BDE8F04F01F0D9BE484694
:1011500094E80E00009701F061FF0136C8E7FEF742
:10116000F7FF05240646DFF8D890DFF8D8B0DFF89F
:10117000DCA0A64228DD0024A346DFF8C490DFF8F7
:10118000CCA0A64230DC01262D4C009694E80E003F
:101190002D4801F043FF94E80E0000962C4801F022
:1011A0003DFF2F4B1E78012EBAD138781221C0F1A5
:1011B0000600C0EBC0000130C0B201F045FF94E86A
:1011C0000E0028480096A9E73B785846013BA34209
:1011D0004FF0010300930CBF9AE80E0099E80E004F
:1011E00001F01CFF013CC4E72B7803A8C3EBC30349
:1011F00043441A5D3B788DF80C20F31AA3424FF05C
:10120000010300930CBF9AE80E0099E80E008DF8D8
:101210000DB0013401F002FFB3E7082B92D1122187
:101220004D2001F011FF0122054B00920E480ECB1C
:1012300086E700BF54060020550600205606002011
:1012400088BD00081EBC000818BC00087CBD000852
:1012500028BC000870060020007102002FBC0008A6
:101260006B0600202DBC000833BC000810B501211E
:10127000194802F06DFA10B90122184B1A70164C79
:101280000121204602F064FA0028F9D0134A1378AD
:101290008BB90322124B5B6A002BB8BF03339B1040
:1012A00093FBF2F202EB42029B1A0E4A1370BDE866
:1012B0001040FFF7A9BE012B0CD104200849486259
:1012C00009490B7009490B7000231370BDE81040E9
:1012D000FFF7F2BE10BD00BF000801406B06002002
:1012E000002C014054060020550600205306002023
:1012F0003820054B054A1B78C3EBC303D118D054E3
:1013000000234B70704700BF540600205606002093
:101310003120084B08491A78C2EBC2028B18885456
:1013200036225A7030229A70DA701A715A7100227D
:101330009A71704754060020560600202DE9F04FA0
:10134000012187B0614802F003FA78B9604A614B25
:1013500011781B7839BB012111703BB14FF47A72BF
:101360005D4B1A604FF47A625C4B5A62574C012114
:10137000204602F0EDF90028F9D0554B1A78BAB999
:101380000722564B5B6A002BB8BF03339B1093FBBD
:10139000F2F2C2EBC2029B1A4E4A137007B0BDE8CC
:1013A000F04FFFF789BE10704C4A9B005362DDE797
:1013B000012A40F08780474A494E147835788CB925
:1013C0001C70484B28461C70FFF790FD4648FFF7FD
:1013D000E7FD3378414A9B00536207B0BDE8F04F08
:1013E000FFF712BE3D4B3C4F5B6A3868002BB8BF1D
:1013F00003339A10C0EBA3000192FFF703F8804675
:10140000601E8946FEF7FEFF02460B4682468B466B
:101410000020364909F0E8FC02460B46324CCDE983
:10142000042354F82500FEF7EDFFDDE90423CDE9A0
:10143000020140464946FFF74FF802460B46DDE9F8
:101440000201FEF793FEFFF7F7FA002844F82500A3
:101450001ADA00F51C3000F5807044F8250054F8C5
:101460002520019B072A3B6024DC082344F8253013
:10147000FFF73EFF33781E49C3EBC30254F8230045
:101480001144FFF74DFD89E71A4B9842E7DD5246BC
:101490005B460020154909F0A7FC02460B46404672
:1014A0004946FFF719F80022134BFEF75FFEFFF7DE
:1014B000C3FAD2E7114B9A42DCDD44F82530FFF73E
:1014C00027FFD7E707B0BDE8F08F00BF0008014055
:1014D0006B060020550600206C060020002C014001
:1014E000540600205306002070060020000024400F
:1014F000560600203F420F0000001C400071020011
:101500000022014630B510460A25D3B2CB5C013229
:10151000A3F13004092C00D930BD05FB0033A3F141
:101520003000F2E72DE9F043044646012E4FDFF884
:10153000BC80DFF8BC90ADF2044D06F54276304633
:1015400006F03EFA172819D1204606F02EFB002897
:1015500040D040F2FF326946204606F0A7FF00283F
:1015600038DD002339460DF80030684609F04EF8A2
:1015700040B10A2220461F4906F0E2FE0DF2044D5A
:10158000BDE8F0836846FFF7BBFF1B4BA0F10802E4
:101590009A4298F80050194B194998BF43F8250012
:1015A000C5EBC50253F825001144FFF7B9FC2846E6
:1015B000FFF79CFC1148FFF7F3FCFFF725FD002225
:1015C0004FF40051484602F0C9F8042220460D4964
:1015D00006F0B6FE01F0FCFD054601F0F9FD0A3803
:1015E000A842FAD3ABE700BF37BC0008540600207E
:1015F000001001403CBC0008F8700200700600209A
:101600005606002047BC000838B50446400100F5E6
:1016100042700D4606F0D4F910B1204606F032FCB7
:101620002A4600230121204606F06AFC084DC0B27C
:10163000A042287009D1204606F004FEC0B201285D
:10164000287003D0204606F01DFC002038BD00BFE6
:101650005002002010B501F0BBFD214C2368C01AD8
:10166000B0F5FA7F07D94FF400511E4802F07BF81D
:1016700001F0AEFD20604FF4427006F0A1F91A4B64
:101680001428187006D017280DD0E8B1002006F0F5
:10169000F9FB1FE001F09CFD044601F099FD643860
:1016A000A042FAD310BD114B1C78002CFAD122466F
:1016B0004FF400510B4802F051F82046FFF732FF7B
:1016C000204606F0F5FDE1E701224FF40051054800
:1016D00002F044F8BDE8104050210020FFF794BF0D
:1016E0004C0200200010014052060020530600204A
:1016F00037B51F491F4806F07DFF1F491F4806F0F8
:1017000087FF1F491F4806F095FF6B461E4A42F2AD
:101710001174106851681D4D03C36946084606F0F0
:10172000D8FF06224FF41060194906F0E3F90020B3
:10173000184907F099FA1849184A084607F07CF842
:101740002B780BB9013C0FD12B785BB1144807F013
:10175000E3FA144807F0ECFA134807F0F5FA0C48DE
:1017600006F0FAFF03B030BD07F04CFDE8E700BF1C
:10177000850E0008750E0008D50E0008A90E000899
:10178000C10E0008950E00084CBC00085106002050
:1017900000000020510200205D0E0008690E0008C4
:1017A000060000200E0000200A0000200368B3F1AC
:1017B000804F0CD1064B1B782BB9064B1B78172B8F
:1017C00005D0FFF753BD012B01D1FFF7B7BD70471F
:1017D000530600205206002030B595B01422002197
:1017E0000CA808F0F9FE1422102500210DEB0200D0
:1017F00008F0F2FE2A46002101A808F0EDFE0224BE
:101800004FF480330122CDE91143CDE90A234FF48F
:10181000E0130AA80E92139304F0F0F908B172B61F
:10182000FEE70F23CDE905344FF480630790CDE93F
:101830000830214605A804F0A3FB08B172B6FEE704
:10184000049001A8019504F047FC08B172B6FEE7C8
:1018500015B030BD2DE9F043102593B001F09AFC8E
:10186000FFF7BAFF2A46002109A808F0B5FEA64BEB
:101870004FF400519A69A5482A439A619A69002455
:101880002A400392039A9A694FF0010942F020021C
:101890009A619A69022602F020020492049A9A69D7
:1018A000DFF86C8242F004029A619A6902F0040245
:1018B0000592059A9A6942F008029A619B69002292
:1018C00003F008030693069B01F048FF0022294617
:1018D000904801F043FF4FF400538C4809A9CDE92B
:1018E0000939CDE90B4601F05FFE8A4809A9CDE927
:1018F00009940B9401F058FECDE90B464FF4804655
:10190000844809A9CDE9095901F04EFE8248834B6C
:10191000C0E90244C0E90464C0E906440462C0E9C5
:10192000003802F0A7F8044608B172B6FEE7014697
:1019300020220AA808F050FE41F65833784D794F1E
:10194000C5E903340323284609A9CDE90744C5E9BD
:101950000074C5E90544AC600993CDF82C90CDF82E
:101960003C9005F0E9F908B172B6FEE7CDE9070051
:1019700007A9284605F0B8FA034608B172B6FEE793
:1019800069486A4AC0E90233C0E90028C0E9046333
:10199000C0E90633036202F06DF8044608B172B67E
:1019A000FEE70146CDE907001C2209A808F014FE55
:1019B00041F61F434FF080415D4EC6E9001340F2EF
:1019C000E7333046C6E90334B460B46105F088F902
:1019D00008B172B6FEE7CDE9070007A9304605F069
:1019E00083FA024608B172B6FEE760230B90CDE998
:1019F00009300D9009A9304605F01EFA044608B1D9
:101A000072B6FEE7304601F08BF908F0C9F94FF4E1
:101A100082734848484A0826C0E900234FF40073FF
:101A2000C0E906360A23C0E90244C0E90444C0E91B
:101A300008448462C36204F06BFC044608B172B6C9
:101A4000FEE73C21284605F027F801F01BFBFFF7D5
:101A50004FFE7C62394CC4E90066A660FFF782FA4B
:101A600000284DD12046FFF79BFA0025344B35491D
:101A7000A0681D70FFF754FA60680739FFF750FA45
:101A800007392068FFF74CFA08224FF47A7764266A
:101A90002D4B1D702D4B1D702D4B1D702D4B1A6045
:101AA000FFF7B2FA224804F0CDFF2B4B2A46602103
:101AB0001948009500F05EFD0321284600F075FCF2
:101AC0000321012000F071FC0321022000F06DFCD5
:101AD00020682A46784380FB060100F071FE6068AA
:101AE0000122784380FB060100F06AFEA068022212
:101AF000784380FB060100F063FEFFF7ABFDFCE7D7
:101B00002046FFF73BFAB0E700100240001001400A
:101B1000A086010000080140B807002000540040E2
:101B2000C4060020002C014064070020005800403B
:101B30007C0600200C0700200030014070060020C9
:101B40006B06002064060020550600205406002085
:101B5000530600206C06002040787D0172B6FEE737
:101B6000134B984208D8134B012943F8210002D1A6
:101B70000022114B1A707047104B114A03449342D4
:101B800008D80C4B4008012943F82100F3D140222A
:101B9000094BEFE70B4B0C4A03449342EBD2054B46
:101BA0008008012943F82100E5D18022024BE1E7BA
:101BB00080C3C90118080020290800207F3C36FE98
:101BC0007FC3C901FF786CFC005A6202000000006C
:101BD0002DE9F84F1E46DDE90A9117469DF8308041
:101BE000474B002879D1474A6424127801F0004518
:101BF00053F82230C807A3FB044A3FA3D3E90023CC
:101C000045EA5101FEF740FF00FB0AF3A0FB045236
:101C100004FB0133ED0F134445EA430514233A4A0C
:101C20002C194AEBE575BA42B24673EB0606BB4681
:101C30003CBF93469A460D23344A5A4573EB0A0239
:101C400024BF9A46DFF8C8B022462B465846514674
:101C5000FEF76AFF0E280746064640D80F23A4FB6E
:101C600003BA03FB05AA514622462B465846FEF707
:101C70005BFF9C46DFF89CA02B46A2FB0A01224694
:101C80000AFB0C11FEF750FF0146B8F1000F2AD1F4
:101C9000002814BF52460122CB01B3FBF2FA02FB2B
:101CA0001A334FEAC71CACF5007ED644C9E90132AD
:101CB000C9F800E0B8F1000F17D1A4FB000C4346AF
:101CC00005FB01C1FEF730FFA6FB044605FB0766D6
:101CD000201846EB0101BDE8F88F0F4A84E75A2827
:101CE000C1D95A23BBE75246D6E70021094BECFB8A
:101CF0000301F0E7AFF3008000CA9A3B0000000048
:101D0000180800200D08002000046BF4FF5747F866
:101D1000005847F840420F000C0800200000000067
:101D20002DE9F84F0D461F4605239046544A0446B8
:101D3000824273EB0501DDF828A0C0F08A804FF0E5
:101D40000009504B834279EB050380F08A8058EA02
:101D500007033FD14C4B83424FF00303AB4116D2F4
:101D60004FF00009012348464E46AF0047EA9477FA
:101D70004FEA8408B9F1000F04BF44463D46CAE962
:101D8000006029462046CAF80830BDE8F88F0246B0
:101D900039A1D1E900012B46FEF7C6FE06460738F9
:101DA00008430A4601D106264A464FF0000906FBC1
:101DB00005F3A6FB048704FB023348461F440123B6
:101DC000C001B0FBF3F2F601A6F5007603FB1200AA
:101DD0001644CFE72D4B984275F103032CBF4FF00B
:101DE00001094FF0000922462B4640463946FEF7CE
:101DF0009BFE0528064622D8062200234046394687
:101E0000FEF792FE04460D4622462B4640463946D2
:101E1000FEF78AFE1946DFF878B02B46A2FB0B0CC2
:101E200022460BFB01C1FEF77FFE00280CBF0123F9
:101E30005B46B9F1000F08D14FF00109C0E7B0F5DA
:101E4000E16FE1D94FF4E162D7E700204B46064647
:101E500090E758EA070114461D4681D04FF001096A
:101E6000C1E758EA07034D460A4CBCD14FF4E1667E
:101E70002A469AE7AFF3008000046BF414000000D8
:101E800000C11A3D7FF0FA02FFD5117E00D6117E07
:101E900040420F0080F0FA028446F8B50C4619461D
:101EA0002D4B26469C4574F1000465463CBF1D46FB
:101EB00000260323294C1046AC4273EB06023CBFBC
:101EC00025461E4650EA01032A463346069F28D17E
:101ED0001FA1D1E90001FEF727FE0446C30748BF52
:101EE0000134FE2C28BFFE24A4FB05011C4B04FB7F
:101EF000061183424FF014038B410AD2023CA4FB2B
:101F0000050104FB06110023C7E90133E4B23C607C
:101F1000F8BD144B83424FF00D038B41F3D30234D1
:101F2000EDE7FEF701FE194613430446104609D1BA
:101F3000A31FF82BECD80021E4B20120C7E901115E
:101F40003C60E5E700200146E2E700BFAFF3008018
:101F5000002375EE1400000080F0FA0200D6117E16
:101F600000046BF4FF5747F8D0E900320146002027
:101F700070B53A4C3A4E1C1962F10005A64270EB5E
:101F8000050507D30720D20142EA5362DB01C1E90C
:101F9000003270BD334C344E1C1962F10005A6426C
:101FA00070EB050507D3920142EA93629B0106207C
:101FB000C1E90032EDE72D4C2D4E1C1962F10005F0
:101FC000A64270EB050507D3520142EAD3625B01DA
:101FD0000520C1E90032DCE7264C274E1C1962F1CE
:101FE0000005B44275F1000507D2120142EA1372EE
:101FF0001B010420C1E90032CBE7204C204E1C1904
:1020000062F10005B44275F1000507D2D20042EA40
:102010005372DB000320C1E90032BAE7194C1A4EB3
:102020001C1962F10005B44275F1000507D2920057
:1020300042EA93729B000220C1E90032A9E7134CE7
:10204000134E1C1962F10005B44275F10005A0D2CF
:10205000DB1852410120C1E900329AE780E5F9FF1F
:102060007F1A060000CBF3FFFF340C000096E7FF59
:10207000FF691800002CCFFF00D4300000589EFFED
:1020800000A8610000B03CFF0050C300006079FE72
:1020900000A08601D0E900320146002070B53A4C1C
:1020A0003A4E1C1962F10005A64270EB050507D3F4
:1020B0000720D20142EA5362DB01C1E9003270BD60
:1020C000334C344E1C1962F10005A64270EB050535
:1020D00007D3920142EA93629B010620C1E90032D4
:1020E000EDE72D4C2D4E1C1962F10005A64270EB58
:1020F000050507D3520142EAD3625B010520C1E91D
:102100000032DCE7264C274E1C1962F10005A6427E
:1021100070EB050507D3120142EA13721B0104207C
:10212000C1E90032CBE7204C204E1C1962F10005BA
:10213000A64270EB050507D3D20042EA5372DB00DA
:102140000320C1E90032BAE7194C1A4E1C1962F19A
:102150000005A64270EB050507D3920042EA937290
:102160009B000220C1E90032A9E7134C134E1C1951
:1021700062F10005A64270EB0505A0D3DB185241C1
:102180000120C1E900329AE768D7E3FF97281C00D5
:10219000D0AEC7FF2F513800A05D8FFF5FA2700047
:1021A00040BB1EFFBF44E10080763DFE7F89C20137
:1021B00000ED7AFCFF12850300DAF5F8FF250A0727
:1021C0001FB50A4B1C784FF4FA73CDE901130123B4
:1021D00000920246064804FA03F1006801F078FF15
:1021E000B0FA80F0400904B010BD00BF28080020FC
:1021F00088080020F0B514468DB007460E46274AE1
:1022000004ABACBB26490294097852F82120CDE9F1
:102210000032024633462046FFF7DAFCBDF818309C
:10222000069D5BBAADF81C30049B2D0BC3F3014235
:102230008DF81E201A0A8DF81F20BDF816208DF883
:102240002030BDF8143005F0F00502F00F025BBA43
:1022500015438DF82150ADF82230ACB908211A2071
:1022600007AAFFF7ADFF0F4BC3E900760DB0F0BD35
:10227000002102910C49097852F82120CDE9003261
:10228000024633460120C7E7012CEFD10821222066
:1022900007AAFFF795FF054BE6E700BF2C080020D3
:1022A0000D080020400800200C08002038080020FD
:1022B00008B5084B002243F82100074BD3E9000181
:1022C000FFF798FF054B0122D3E90001BDE8084064
:1022D000FFF790BF2C08002040080020380800209D
:1022E0007FB50C4B02468DF817104FF4FA70197831
:1022F0000123CDE901300DF1170000900648994007
:10230000006801F0E5FEB0FA80F0400907B05DF822
:1023100004FB00BF280800208808002018B92021ED
:10232000B120FFF7DDBF012801D18021F8E7704718
:10233000F0B56426012300240F4F87B039780F4D84
:10234000009699408DF80F000DF10F0228688DF866
:10235000174001F037FC01233978009628680DF109
:102360001702994001F008FD18B99DF8170007B051
:10237000F0BD2046FBE700BF2808002088080020A9
:1023800038B5054603200C46FFF7D2FF0123012C88
:1023900003FA05F30CBF20EA030140EA0301C9B2C6
:1023A0000320BDE83840FFF79BBF103038B5C4B2FA
:1023B0000D462046FFF7BCFF022D00F0FC010AD0BD
:1023C000032D0BD0012D01D141F001012046BDE8C4
:1023D0003840FFF785BF41F00201F7E741F0030104
:1023E000F4E7000070B500F11006F6B2054630467D
:1023F0000C46FFF79DFF01463CB900F0DF01304677
:10240000FFF76EFF044B5C5570BD012C04BF40F01C
:102410002001C9B2F3E700BF0E0800200000000051
:102420002DE9F8430024012580211020FFF758FFF3
:1024300080211120FFF754FF80211220FFF750FF69
:1024400080211320FFF74CFF80211420FFF748FF65
:1024500080211520FFF744FF80211620FFF740FF61
:1024600080211720FFF73CFF0C211020FFF738FFD9
:102470000C211120FFF734FF0C211220FFF730FF51
:102480000C211320FFF72CFF0C211420FFF728FF4D
:102490000C211520FFF724FF0C211620FFF720FF49
:1024A0000C211720FFF71CFF30A1D1E90001002209
:1024B000FFF7A0FE2DA1D1E900010122FFF79AFE4E
:1024C000274B214620469D71DD711C705C709C700D
:1024D000DC701C715C71FFF785FF28462146FFF711
:1024E00081FF21460220FFF77DFF21460320FFF7F1
:1024F00079FF21460420FFF775FF21460520FFF7ED
:1025000071FF29460620FFF76DFF29460720FFF7D8
:1025100069FF2146A220FFF7E3FE2146A320FFF733
:10252000DFFE2146A420FFF7DBFE2046FFF7F6FE84
:102530008021B120FFF7D4FE4FF000084FF00009D2
:102540002746084E084DE0B20021E6E80289013432
:10255000FFF716FF082C05F8017BF4D1BDE8F883DE
:102560000E080020480800202008002000205FA05E
:1025700012000000F8B51D46154B14461860154BA7
:10258000154A197000231370144A154E1370154F15
:10259000154A376013700020FFF7CAFEC0F3C7105A
:1025A0000128F8D024F03F01B72041F01201FFF7D5
:1025B00097FE5DB100212846FFF7D2FA0698002168
:1025C000FFF776FEFFF72CFF0120F8BD3760F5E737
:1025D00088080020280800200D0800200C08002092
:1025E0001808002040787D0129080020103038B5F7
:1025F000C4B20D462046FFF79BFE012D0ABF40F0F6
:10260000400100F0BF01C9B22046BDE83840FFF7E5
:1026100067BE00000728F8B58CBF0026134B0446A0
:1026200098BF1E5C0D4630461746FFF781FE052C0D
:10263000014608D800F083000FB140F00C0040EADA
:102640000511C9B205E0062C08D100F0F80045EAF2
:1026500000013046BDE8F840FFF742BE072CF8D134
:1026600000F08F0141EA0511EBE700BF5ABD0008F9
:102670002DE9F04F80468BB001A8B8F1050F80E836
:102680000E0089469DF850709DF854409DF85850B2
:10269000CBB236D893464FEAC800BDF80C202C3098
:1026A00052BA00F0FC00BDF808A0039E0093ADF8FC
:1026B0001420FFF73DFE0821009B360BC9F30142B1
:1026C00020F003008DF8183006F0F006CBF303433A
:1026D0001E439AFA9AFA02434FEA19298DF81620F6
:1026E0008DF817908DF819605FFA8BF3ADF81AA08A
:1026F000B8F1070F14D8DFE808F00616222E3A4684
:10270000525A0021F4E705AA2A20FFF759FD39465D
:102710000020FFF76BFF2A4621460020FFF77AFFD3
:102720000BB0BDE8F08F05AA3220FFF749FD39460E
:102730000120FFF75BFF2A4621460120EEE705AAAC
:102740003A20FFF73DFD39460220FFF74FFF2A46AA
:1027500021460220E2E705AA4220FFF731FD394673
:102760000320FFF743FF2A4621460320D6E705AAA8
:102770004A20FFF725FD39460420FFF737FF2A4698
:1027800021460420CAE705AA5220FFF719FD394661
:102790000520FFF72BFF2A4621460520BEE71946F4
:1027A0005A20FFF79DFD2A4621460620B6E7194626
:1027B0005B20FFF795FD2A4621460720AEE7000083
:1027C0002DE9F04F431E91B00E46CDE9060161F1AF
:1027D0000001052A144607464FF000029E4D00F204
:1027E000B6809E4898428A4124D300239C4ACDE972
:1027F0000623DDE906874FF0020EDFF868C29A4E25
:10280000C4457EEB070379D2304600239249D1E9D3
:102810000092CC457EEB020201F1080114D29C42E9
:1028200012D090F80090325D91450DD1012011B089
:10283000BDE8F08F8D4BBB424FF00503B341D8D2BA
:1028400081A3D3E90023D2E70133DBB2062B00F1E9
:102850000100DCD1DFF8189219F8043033B90121F6
:102860002046FFF78DFD012309F8043005EBC40372
:1028700045F834805F600AAB002239460093404639
:102880000023FFF74DFA325DCDE904010027FFF781
:10289000B1FC05EBC70355F837205B6852EA03012A
:1028A00024D0F05D315D884220D108A8CDE908230D
:1028B000FFF75AFBDDE908BADDE904230DF134081E
:1028C000814651465846CDF80080FFF729FA694BFA
:1028D000F8B29B457AF103032CBF01230023CDE915
:1028E0000193009398E80E00FFF7C2FE0137062F10
:1028F000CFD1305DFFF712FD002098E705EBC40350
:1029000045F834805A4D5F602B5D2BB9012120467C
:10291000FFF736FD01232B5506A8FFF725FB335D96
:102920000AAD0746009583B9534BD3E90023DDE98F
:102930000601FFF7F5F90023CDE90173009395E84F
:102940000E002046FFF794FED6E74C4BEDE74C48CF
:1029500098428A412FD30023414ACDE90623DDE97D
:102960000667062C43D1D5E90E3213432DD0434BD5
:102970003246D3E900893B4640464946FEF7D4F843
:102980001A437FF453AFC2073FF550AFC5E90C6758
:1029900006A8FFF77FFB0AAB0546DDE906010093B9
:1029A00042464B46FFF778FA0023CDE901530093E6
:1029B0000AAB0ECBC5E7334BBB424FF00303B34129
:1029C000CDD223A3D3E90023C7E706A8C5E90C6746
:1029D000FFF760FB0AAB002200930546DDE9060124
:1029E0000023FFF759FA0122FFF704FCDCE7D5E9E1
:1029F0000C32134313D0214B3246D3E900893B46B6
:102A000040464946FEF790F81A437FF40FAFC307DC
:102A10003FF50CAF05EBC405C5E90067B8E705EB6A
:102A2000C40506A8C5E90067FFF734FB0AAB00221E
:102A300000930546DDE906010023FFF72DFA0A4B56
:102A40001A5DD1E7AFF3008000C11A3D0500000018
:102A5000FFD5117E03000000480800207E1A060002
:102A6000801A060000E40B540E08002000C11A3D35
:102A70002008002000D6117E4008002038080020E1
:102A800096281C00FFD5117E124B07B59A690520C8
:102A900042F001029A619A6902F001020092009AE2
:102AA000DA6942F08052DA610022DB69114603F0F4
:102AB00080530193019B00F0B5FB052000F0E2FB81
:102AC000054A536823F0E06343F00073536003B09A
:102AD0005DF804FB0010024000000140102210B518
:102AE000044688B00DEB0200002107F075FD236855
:102AF000304A93422ED1304CC021A3692F4843F075
:102B00000803A361A36903F008030093009B122349
:102B1000CDE90413032304A9079300F045FD002227
:102B2000E369114643F40013E361E3691F2003F4F2
:102B300000130193019B00F075FB1F2000F0A2FB26
:102B400000222020114600F06DFB202000F09AFBAF
:102B500008B010BD1A4A9342FAD1174C4FF44062A4
:102B6000A369164843F00803A361A36904A903F00D
:102B700008030293029B1223CDE904230323079346
:102B800000F012FD0022E369114643F48003E36183
:102B9000E369212003F480030393039B00F042FBCD
:102BA000212000F06FFB00222220114600F03AFBAA
:102BB0002220CBE70054004000100240000C0140EE
:102BC0000058004010B5044686B01022002102A82B
:102BD00007F002FD22681A4B9A422ED103F560439A
:102BE0009A69184842F480529A619A6902A902F4DB
:102BF00080520092009A9A69002442F004029A617D
:102C00009B69A02203F004030193019B0223CDE9F9
:102C100002230323059300F0C7FC4023094802A9BF
:102C2000CDE90234049400F0BFFC23202246214663
:102C300000F0F8FA232000F025FB06B010BD00BF1D
:102C4000003001400008014010B5044686B0102253
:102C5000002102A807F0C0FC2268204B9A423AD11A
:102C600003F564439A691E4842F400629A619A69C6
:102C700002A902F400620092009A9A6942F00402EA
:102C80009A619B6903F004030193019B4FF4407325
:102C9000029300F089FC00221820114600F0C2FACD
:102CA000182000F0EFFA00221920114600F0BAFABD
:102CB000192000F0E7FA00221A20114600F0B2FABB
:102CC0001A2000F0DFFA00221B20114600F0AAFAB9
:102CD0001B2000F0D7FA06B010BD00BF002C014049
:102CE00000080140036807B5B3F1804F15D103F523
:102CF0000433DA691C2042F00102DA610022DB6948
:102D0000114603F001030193019B00F08BFA1C2094
:102D100003B05DF804EB00F0B5BA03B05DF804FB56
:102D200010B5044686B01022002102A807F054FC1A
:102D30002368B3F1804F1DD103F504339A690E481F
:102D400042F004029A619B694FF4004203F00403CD
:102D50000193019B022302A9CDE90223059300F010
:102D600023FC064A536823F4407343F0E06343F4C2
:102D70008073536006B010BD0008014000000140A0
:102D8000FEE7FEE7FEE7FEE7FEE7704770477047A5
:102D900000F012BA70470000014802F01BB900BFF2
:102DA0003C1A0020FFF7F8BF014803F0D2BE00BF75
:102DB000C4060020FFF7F8BFFFF7F6BFFFF7F4BF28
:102DC000014803F0C6BE00BF7C060020014801F0A8
:102DD00079BB00BFB8070020014801F0CBBF00BF9E
:102DE000B8070020014801F06DBB00BF6407002058
:102DF000014801F0BFBF00BF64070020014803F095
:102E00002FBD00BF0C0700200B4A0346116810B508
:102E100009B90A491160106809490A4C0344091BA1
:102E20008B4206D907F018FC0C2303604FF0FF30EB
:102E300010BD1360FCE700BF8C080020601E00205E
:102E4000005000200004000070470000FFF7FCFF66
:102E50000B480C490C4A002302E0D458C4500433F8
:102E6000C4188C42F9D3094A094C002301E01360CD
:102E70000432A242FBD307F0F5FBFEF7EBFC7047F0
:102E80000000002030020020C0D3000830020020E3
:102E90005C1E0020FEE700007FB501234FF0FF32EB
:102EA000CDE901320DF117028DF81700009278215B
:102EB0000022034801F00CF907B05DF804FB00BFE5
:102EC000640700201FB54FF0FF3389B2CDE9000140
:102ED0000293402201237821024801F0F9F805B05D
:102EE0005DF804FB6407002000284FF4007214BF53
:102EF000FF210021014807F06FBB00BF96080020AA
:102F000038B5B0240A4D2046FFF7C6FF0020FFF772
:102F1000C3FF01341020FFF7BFFFE4B22846802131
:102F2000FFF7D0FFB42C05F18005ECD138BD00BF10
:102F300096080020030630B510D41F290ED80124AE
:102F4000CB08074D00EBC3102B5C01F0070104FA1E
:102F500001F1A2420CBF0B438B432B5430BD00BF89
:102F6000960800202DE9F04F044689B008A800E932
:102F70000E009DF84830A4F120050293EBB25E2BC1
:102F800048D8079B0BB3234413F8206CDFF88890D4
:102F9000B9F800A00AEB0603802B3BDCB9F802303D
:102FA0009DF815B0019303EB0B02202A32DC4FF0A1
:102FB00000080BFB05F56D00C34509D85644A9F878
:102FC0000060204609B0BDE8F08F9DF81460DDE791
:102FD0000027069A535B0493019B08EB0302D3B2CC
:102FE0000393BE4203D808F101080235E4E7049BCD
:102FF00007EB0A0003FA07F2130456BF029B029A7A
:10300000B3FA83F20399C0B258BF5209FFF792FF97
:103010000137E6E70024D4E79008002070B586B0B9
:1030200003AC84E80E009DF82860451E15F8010FDA
:1030300040B1009694E80E00FFF794FF034628780D
:103040008342F3D006B070BD014B188059807047A1
:103050009008002010B504468120FFF71DFF204690
:10306000BDE81040FFF718BF002803460CBF034619
:103070000123034A0CBFAE20AF205371FFF70CBFF2
:103080009008002008B5642000F0A8F80020FFF7A1
:10309000EBFF2020FFF700FF0020FFF7FDFEB02030
:1030A000FFF7FAFEC820FFF7F7FE0020FFF7F4FE57
:1030B0001020FFF7F1FE4020FFF7EEFEFF20FFF7A4
:1030C000C9FFA120FFF7E8FEA620FFF7E5FEA82034
:1030D000FFF7E2FE1F20FFF7DFFEA420FFF7DCFE74
:1030E000D320FFF7D9FE0020FFF7D6FED520FFF74B
:1030F000D3FEF020FFF7D0FED920FFF7CDFE22202F
:10310000FFF7CAFEDA20FFF7C7FE0220FFF7C4FE72
:10311000DB20FFF7C1FE2020FFF7BEFE8D20FFF76A
:10312000BBFE1420FFF7B8FE0120FFF79DFF002033
:10313000FFF7DAFEFFF7E4FE0022034B1A805A8005
:1031400001221A7108BD00BF9008002038B50E4B4F
:1031500005461A784FF47A73B3FBF2F30B4A106802
:10316000B0FBF3F000F09CF8044658B90F2D09D8D5
:10317000024629464FF0FF3000F054F82046044B39
:103180001D6038BD0120FCE71C0000201800002055
:1031900020000020074A08B51368032043F01003FD
:1031A000136000F02DF80F20FFF7D0FFFFF76CFC45
:1031B000002008BD00200240034A044B11681B7820
:1031C0000B441360704700BF980A00201C000020C9
:1031D000014B1868704700BF980A002038B50446B4
:1031E000FFF7F6FF0546631C1EBF044B1B78E4186F
:1031F000FFF7EEFF431BA342FAD338BD1C000020AB
:1032000007490302CA6803F4E06322F4E06212048F
:10321000120C134343F0BF6343F40033CB60704799
:1032200000ED00E0154B30B5DC68C4F30224C4F1B6
:103230000703251D042B28BF0423062D4FF0FF355F
:1032400094BF0024033C05FA03F321EA0303A540DD
:1032500022EA0502A340002843EA0203ACBF00F1C2
:103260006040074A4FEA0313DBB2ABBF00F5614091
:1032700000F00F0080F80033135430BD00ED00E083
:1032800014ED00E0002807DB01234109034A00F0A8
:103290001F00834042F82130704700BF00E100E08A
:1032A0000138B0F1807F0BD24FF0E023F021054AC6
:1032B000586182F823100020072298611A61704734
:1032C0000120704700ED00E008B590F82130022B96
:1032D00003D004238363012008BD03681A6822F029
:1032E0000E021A601A6822F001021A60174A93420D
:1032F0001FD0143293421ED0143293421DD0143288
:1033000093421DD0143293421DD01432934214BF05
:103310004FF080734FF480130D4A5360012380F8FF
:103320002130002380F82030436B03B19847002000
:10333000D2E70123F0E71023EEE74FF48073EBE7C9
:103340004FF48053E8E74FF48033E5E7080002408C
:103350000000024090F8210070470000114AD36835
:1033600013F0100305D01049CB6943F00203CB6181
:103370001023D268500706D50B4943F00403CA69ED
:1033800042F00102CA61074AD169C90708D5064857
:10339000C16941F00401C161D16921F00101D1612C
:1033A000D360704700200240A00A0020064B186935
:1033B00010F0800007D0054A5A6002F188325A6046
:1033C0001869C0F3C0107047002002402301674510
:1033D000034A0020136943F080031361704700BF64
:1033E0000020024070B50546FFF7F2FE0646114C7C
:1033F000E368D80712D4E368990644BF2023E3604A
:10340000E368DA0606D4E369DB0703D4E06810F06A
:10341000040007D0FFF7A2FF012003E06B1CE7D0F8
:103420000DB9032070BDFFF7D3FE801BA842DFD982
:10343000F7E700BF002002402DE9F84FDFF894A025
:103440001F469AF818300546012B884691463FD012
:1034500001234CF250308AF81830FFF7C3FF90BBBD
:10346000012D03D0022D14BF04250225002633466A
:10347000DFF864B03401C4F12001A4F1200207FA9E
:1034800001F129FA04F4CAF81C300C4327FA02F2BD
:103490001443DBF81020A4B242F00102CBF8102054
:1034A0004CF2503028F81640FFF79CFFDBF8102054
:1034B00022F00102CBF8102028B90136F2B2954271
:1034C0004FF00003D6D800238AF81830BDE8F88FF3
:1034D0000220FBE7A00A0020002002400022064B49
:1034E000DA61064B1A6942F002021A6158611A69E0
:1034F00042F040021A617047A00A002000200240FA
:103500002DE9F041264F05463B7E8846012B44D0ED
:1035100001243C7603684CF25030022B1AD1FFF79D
:1035200061FF20B1012000233B76BDE8F0811D4CF6
:10353000F86123694CF2503043F00403236123699E
:1035400043F040032361FFF74DFF236923F0040399
:103550002361E8E7FFF746FF0028E3D14FF0FF3390
:10356000C8F800302046AE680E4CD5E9023203EBB5
:103570008223B342D7D93046FFF7B0FF4CF2503028
:10358000FFF730FF236923F00203236110B1C8F86D
:103590000060C8E706F58066E7E70220C5E700BFE0
:1035A000A00A0020002002402DE9F74F00244FF030
:1035B0000F0E2646DFF884C1614B00F104080A684B
:1035C00032FA06F502D103B0BDE8F08F012505FA05
:1035D00006F702EA070537EA020276D14A68032AAB
:1035E00007D8013A022A00F28380DFE802F09196C0
:1035F0009C00122A00F0948069D8112A00F08A8079
:10360000FF2D94BF8146C1464FEA8602D9F800706B
:1036100088BF203A0EFA02FA27EA0A0704FA02F2F1
:103620001743C9F80070D1F8049019F0805F4CD0AE
:10363000DCF8182026F0030742F00102CCF818202D
:10364000DCF8182007F1804702F00102019207F52B
:10365000803706F0030A019A4FEA8A0ABA680EFA1E
:103660000AFB22EA0B0B374A904260D002F58062D7
:1036700090425ED002F5806290425CD002F580629A
:10368000904214BF0422032202FA0AF242EA0B0219
:10369000BA609A6819F4801F14BF2A43AA439A603B
:1036A000DA6819F4001F14BF2A43AA43DA605A6883
:1036B00019F4003F14BF2A43AA435A601A6819F448
:1036C000803F14BF2A43AA431A60013677E7DFF828
:1036D00078904A450CD014D8A9F580194A4507D0EE
:1036E00009F570294A4503D0A9F580194A4587D1C3
:1036F0008A68D2B1012A4FF008040CBF0761476104
:103700007EE7DFF848904A45F2D009F58039EDE7C9
:10371000CC6875E7CC68043472E7CC6808346FE78E
:10372000CC680C346CE700246AE7042468E70022C4
:10373000AAE70122A8E70222A6E700BF0010024084
:103740000004014000080140000022100000311078
:103750008368194214BF0120002070470AB101613B
:1037600070470904FBE7C36801EA030221EA030189
:1037700041EA024101617047016800224B6913F47C
:10378000806310D06FF480634B612023026380F864
:103790003D3080F83E20036C80F83C2043F0040369
:1037A000036401207047184670472DE9F846064625
:1037B0000F4691461D464FEA114A3368BAF1010F90
:1037C0000CBF5C699C6927EA0404A4B2B4FA84F4CF
:1037D0006409A14501D0002025E06A1CEED0FFF766
:1037E000F7FC089BC01AA84201D8002DE5D1336828
:1037F000BAF1010F0CBF5B699B6927EA03039BB217
:10380000B3FA83F35B099945D7D100232022012025
:10381000336386F83D2086F83E30326C86F83C30C3
:1038200042F020023264BDE8F8862DE9F0410446FA
:103830000F46164698462568686927EA000080B258
:10384000C0B16B695A0517D52B68202243F4007369
:103850002B606FF480636B610023236384F83D2049
:1038600084F83E30236C43F00403236400230120DA
:1038700084F83C30BDE8F081731CDDD0FFF7A8FC74
:10388000A0EB0800B04201D8002ED4D123685A69B9
:1038900027EA020292B2002ACDD00023202223631D
:1038A00084F83D2084F83E30236C1343DDE770B587
:1038B00004460D46164623685B691B0601D50020A9
:1038C0001EE02046FFF758FFC8B96A1CF3D0FFF787
:1038D0007FFC801BA84201D8002DECD123685B69D6
:1038E00013F08003E7D12022236384F83D2084F87D
:1038F0003E30226C84F83C3042F0200222640120E9
:1039000070BD00002DE9F043154602689946136822
:1039100085B043F480731360DDE90C780E463B46B6
:1039200000224FF00111CDF800800446FFF73DFF63
:10393000236838B11B68DB0502D54FF4007323649C
:10394000032620E006F0FE061E613A464346204666
:103950001849FFF76AFFA8B9236803905A693946E6
:1039600003929B69424603932046039BFFF79FFF08
:10397000064660B1236C042B01BF2268136843F430
:10398000007313600126304605B0BDE8F083B9F13D
:10399000010F236802D1EDB21D61F4E72A0A1A6112
:1039A000394642462046FFF782FF0028E2D12368CD
:1039B000F1E700BF0200010070B504460D4616464F
:1039C00023685B695B0701D500201EE02046FFF7F6
:1039D000D3FEC8B96A1CF3D0FFF7FAFB801BA842DC
:1039E00001D8002DECD123685B6913F00403E7D103
:1039F0002022236384F83D2084F83E30226C84F832
:103A00003C3042F020022264012070BD70B50446B3
:103A10000D46164621684B6913F0400301D0002083
:103A200011E04A69D2060FD56FF010024A612022D8
:103A3000236384F83D2084F83E30236C2364002304
:103A4000012084F83C3070BDFFF7C2FB801BA84208
:103A500001D8002DDED123685B6913F04003D9D172
:103A60002022236384F83D2084F83E30236C1343E6
:103A7000E4E7000070B5044608B9012070BD90F875
:103A80003D3003F0FF021BB980F83C20FFF726F819
:103A9000242384F83D3023681A6822F001021A605A
:103AA0001A6842F400421A601A6822F400421A604E
:103AB00002F002FB3F4B65689D4294BF3E4B3F4B7B
:103AC00098428CBF00230123002BD6D1394E3C4BAA
:103AD000B542B0FBF3F388BF4FF496762268516885
:103AE00021F03F0141EA030182BF73434FF47A762C
:103AF000B3FBF6F35160116A013321F03F010B4330
:103B00001362D169431E2B4821F44F41854221F0B5
:103B1000FF0132D86D00B3FBF5F340F6FC700133C2
:103B2000034242D0C3F30B031943D1611168D4E9B6
:103B3000073021F0C00103430B4313609168D4E9BF
:103B4000030321F40341034321F0FF010B4393607E
:103B5000D168D4E9053021F0FF0103430B43D36062
:103B60001368002043F0010313602023206484F8CD
:103B70003D30206384F83E0080E7A06850B905EB33
:103B80004505B3FBF5F30133C3F30B037BB143F4FA
:103B90000043C9E719206843B3FBF0F30133C3F3D3
:103BA0000B0323B143F44043BEE70423BCE70123E6
:103BB000BAE700BFA08601007F841E00FF083D0019
:103BC00040420F002DE9F043044685B098460D466B
:103BD00091460C9FFFF7FCFA94F83D300646202BE7
:103BE00004D00225284605B0BDE8F08300901923D3
:103BF000012220465C49FFF7D8FD0028F1D194F856
:103C00003C30012BEDD00123216884F83C300B6857
:103C1000DA075EBF0B6843F001030B600B6823F407
:103C200000630B60212384F83D30102384F83E307C
:103C300000232364A4F82A80638DC4F8249023858C
:103C40004A4BE362E36A082B04D0012B02D013F540
:103C5000803F04D10B6843F480730B6002E0236B58
:103C6000122BF7D000223B464FF001112046009660
:103C7000FFF79BFD226840B11368DB0501D40125E5
:103C8000B0E74FF400732364F9E72369B3F5804F7D
:103C900021D105F0FE05156133463A4620463449E8
:103CA000FFF7C3FD05460028E9D1236803905A6950
:103CB00003929B690393039B238DF3B921680A68E0
:103CC00042F400720A60202284F83C3084F83D20DF
:103CD00084F83E3086E7EB1103F0060343F0F0036F
:103CE0001361204633463A462249FFF79EFD0028DD
:103CF000C5D12368EDB21D61CEE732463946204674
:103D0000FFF7D5FD40B1236C042BB8D122681368AE
:103D100043F400731360B2E7636A20681A4612F82E
:103D2000011B01616262628D013A92B26285228D4D
:103D3000D0F814C0511E89B21CF0040F21850AD09E
:103D400049B15978023301616362638D023A013BE4
:103D50009BB263852285324639462046FFF72CFE0A
:103D60000028A9D0CFE700BF020010000000FFFF2D
:103D700002000100080001002DE9F04398460023ED
:103D8000044689B002930E469146109FFFF720FA31
:103D900094F83D300546202B04D00226304609B069
:103DA000BDE8F08300901923012220468F49FFF7D8
:103DB000FCFC0028F1D194F83C30012BEDD001231C
:103DC000216884F83C300B68DB075EBF0B6843F06A
:103DD00001030B600B6823F400630B60222384F85B
:103DE0003D30102384F83E3000232364A4F82A8059
:103DF000638DC4F8249023857D4BE362E36A0A68EF
:103E0000082B42F480620A6004D0012B02D013F523
:103E1000803F04D10B6843F480730B6002E0236B96
:103E2000112BF7D03B4600224FF0011120460095A0
:103E3000FFF7BBFC236838B11B68D80544BF4FF4BB
:103E4000007323640126A9E72269B2F5804F29D1C6
:103E500046F00106F6B21E612B463A4620466549F9
:103E6000FFF7E3FC06460028ECD1228D2368002AE8
:103E70004DD103905A6903929A690392039A1A6882
:103E800042F400721A60DFF87081DFF87091238DC0
:103E9000002B6CD1202284F83C3084F83D2084F83B
:103EA0003E307BE74FEAE61808F0060848F0F002DB
:103EB0001A6120462B463A465149FFF7B6FC0028C6
:103EC000C0D12368F6B23A461E6120462B464949C6
:103ED000FFF7ABFC02460028B4D12368079059696C
:103EE00020460791996907910799196841F48071F3
:103EF00019603B464FF001110095FFF756FC226810
:103F000008B1136899E748F0F1031361A4E7012AA7
:103F100011D11A6822F480621A6072B62368049084
:103F20005A6904929A690492049A1A6842F40072D7
:103F30001A6062B6A7E7022A1A680ED142F400623C
:103F40001A6072B6236805905A6905929A690592BB
:103F5000059A1A6822F48062EAE742F480621A60E5
:103F600006905A6906929B690693069B8BE7032B82
:103F700000F28880012B16D12A4639462046FFF7E9
:103F800045FD00287FF45EAF23681A69636A1A70E2
:103F9000636A01336362238D013B2385638D013B9B
:103FA0009BB2638573E7022B4FF000023B4641460C
:103FB0002046009526D1FFF7F8FB00287FF442AF9A
:103FC00072B623681A6842F400721A601A69636A4A
:103FD0001A70636A01336362238D013B2385638D0D
:103FE000013B9BB2638562B6CEE700BF02001000C2
:103FF0000000FFFF02000100040001001800002083
:1040000008000100FFF7D1FB00287FF41BAF2268F6
:10401000136823F48063136072B646F2A811236814
:104020001A69636A1A70626A531C6362238D013BCA
:104030002385638D013B9BB26385D9F80030B3FBC8
:10404000F1F323214B430293029B013B0293029B1A
:104050006BB92022236384F83D2084F83E30226C23
:1040600042F02002226462B684F83C30EAE623681B
:1040700059694907E8D5196841F4007119601B694D
:104080005370A6E72A4639462046FFF7BFFC0028B2
:104090007FF4D8AE23681A69636A1A70628D616A08
:1040A000013A92B24B1C628522686362238D50698B
:1040B000013B9BB2400723857FF5E9AE032B02BF8E
:1040C000136823F48063136013694B7060E700BFCB
:1040D0002DE9F743044699460F4690460C9EFFF79C
:1040E00077F894F83D300546202B03D0022003B02A
:1040F000BDE8F08300901923012220463A49FFF7DA
:1041000054FB0028F2D194F83C30012BEED001236F
:10411000206884F83C3003684246D90758BF0368DA
:1041200039465CBF43F001030360036823F4006376
:104130000360212384F83D30402384F83E3000237F
:1041400023640A9B20466362BDF82C306385638D2F
:104150002385264BE3624B46CDE90065FFF7D2FB92
:1041600000282AD00120C2E7FFF7A1FB40B1236C51
:10417000042B01BF2268136843F400731360F1E756
:10418000636A27681A4612F8011B39616262628D00
:10419000218D013A92B262857A69481E80B2520737
:1041A00020850AD548B15A7802333A616362638D3B
:1041B0000239013B9BB221856385238D2A46314616
:1041C0002046002BD0D1FFF7F7FB0028CFD1226883
:1041D000136843F400731360202384F83C0084F8D0
:1041E0003D3084F83E0082E7020010000000FFFF2F
:1041F000704770477047704770477047704790F836
:104200003D2008B5036DD2B283B9C36C0268012B9F
:10421000836C05D1DBB21361036D0233036508BD06
:10422000C3F307231361036D0133F7E7036D012B1C
:1042300003D1836C0268DBB2F4E7036D022B2FD14C
:10424000222A05D10268136843F480731360EAE7F9
:10425000438D9BB263B1212A0AD1436A026813F8E5
:10426000011B11614362438D013B9BB24385D6E73D
:10427000438D9BB2002BD2D1212AD0D10268516844
:1042800021F4E0615160116841F400711160202255
:10429000036380F83D2080F83E30FFF7AFFFBEE7B4
:1042A00003685A69120644BF00221A61B7E77047D3
:1042B00070477047002337B546F2A81101932C4B85
:1042C000406A1B6890F83D20B3FBF1F323214B4378
:1042D00001930368D2B2019941BB016C41F0200106
:1042E0000164446B0CB10021A162816B09B100250E
:1042F0008D621D6825F480651D600025458504B12B
:10430000656301B14D63196821F00101196090F8EE
:104310003D10602911D1202380F83D30002380F822
:104320003E300364FFF7C5FF03B030BD019901398A
:10433000019119688905CED4D3E702F02802282A12
:104340000ED1196841F001011960196841F48061CA
:1043500019600023036380F83D20FFF7A9FFE3E71E
:10436000202380F83D30002380F83E30F5E700BF81
:104370001800002010B590F83D2090F83E3004461B
:10438000102BD9B2D2B2036801D0402913D1222A0E
:1043900011D1196821F400611960596811F40061A4
:1043A00006D1602A1EBF202284F83D2084F83E10EA
:1043B0000022226307E002F028012829EDD1002223
:1043C000226384F83D105A6812F400624FD05A6894
:1043D000606B22F400625A6090F82130012B374B59
:1043E0002BD04363FEF770FF50B12268606B1368F7
:1043F00023F001031360202384F83D30436B98477A
:10440000236C19071FBF2268536823F4E0635360CD
:1044100094F83D30226CDBB252070DD5282B0BD11E
:10442000274B2022E36200232046236384F83D20AB
:1044300084F83E30FFF7E1FE10BDA06B4363FEF74A
:1044400043FF0028DCD023685A69510605D51A6954
:10445000636A1A70636A013363622268A06B13682F
:1044600023F001031360202384F83D30C6E794F85D
:104470003D10602915D1202184F83D1022645A692D
:10448000520605D51A69636A1A70636A013363625A
:1044900022682046136823F001031360FFF709FF29
:1044A000AEE75A69500605D51A69636A1A70636ADD
:1044B000013363622046FFF7FBFEA1E7B542000827
:1044C0000000FFFFF0B5044603688FB05A68C66A63
:1044D00090F83E0094F83D101028C5B2C9B202D041
:1044E000402D40F0E5829F69586910F0010F07D117
:1044F000B6F52A0F02D0B6F12A4F51D10FB0F0BD58
:1045000096054DD5E26AB2F52A0F0CD10122E2627E
:1045100094F83E20402A11D1226D52B9626C02F00B
:10452000FE021A61EAE7E26AB2F12A4FF0D10822EC
:10453000EDE7626C42F00102D2B2F2E72269B2F515
:10454000804F1AD194F83D20212A626C11D102F0DB
:10455000FE021A61626B0AB1926A2AB9A26B002A42
:10456000CCD0926A002AC9D05A6842F400625A60DC
:10457000C4E742F00102D2B2EBE7226D32B9626CBD
:10458000D21102F0060242F0F002CAE7226D012ABF
:10459000B4D1626CD21102F0060242F0F102C0E71F
:1045A000060703D5960501D5626CE4E7860740F15E
:1045B000F080960540F1ED8094F83E10E26A256B9C
:1045C00094F83D00C9B2222840F0DB80206D40B94C
:1045D000402906D100905A6900929B690093009B84
:1045E0008CE7216D89B92069B0F5404F0DD101915B
:1045F0005A6901929A690192019A1A6842F480728A
:104600001A60236D0133236578E7618D89B251B952
:1046100002915A6902929A690292029A1A6842F4C5
:1046200000721A6019E0618D89B2012949D112F531
:10463000803F1BD11A6822F480621A605A6812F413
:1046400000620CD01A6822F480621A600022039281
:104650005A6903929B690393039B0023D3E7049257
:104660005A6904929A690492049AD7E7082A1CD0DE
:10467000202A1AD0122D0DD1012A16D11A6822F43F
:1046800080621A60002205925A6905929B6905931F
:10469000059BE2E7102AF1D8864941FA02F2D707D2
:1046A000ECD41A6842F48062EBE71A6822F4806264
:1046B0001A60002206925A6906929A690692069A30
:1046C000ACE7618D89B2022938D1102A03D87A4922
:1046D000D140CE0718D4196841F400611960002157
:1046E000079159690791996907910799196821F408
:1046F0008061196059680D05AFD5202A1BD8072A9B
:104700000ED8012AA9D111E0196841F4806119601D
:104710000021089159690891996908910899E9E778
:10472000A2F10801654ACA40D00796D55A6842F4FA
:1047300080525A6091E712F5803FE3E7196841F42F
:10474000806119605968090510D5202A16D8072AF2
:1047500006D8012A0AD15A6842F480525A6005E00C
:10476000A2F10801554ACA40D207F4D400220992A6
:104770005A6909929B690993099B6EE712F5803F7C
:10478000E8E700220A925A690A929B690A930A9BF7
:10479000B4E67F0740F194805E6836053FF5AEAE23
:1047A000070600F004063ED550053CD5002E3DD14D
:1047B00094F83D20258D94F83E10D2B2E06AC9B23B
:1047C000C5B9212A18D1082858D0202856D010F56C
:1047D000803F53D05A6822F4E0625A601123236369
:1047E000002384F83E302023204684F83D30FFF734
:1047F000FFFC83E6212A05D040297FF47FAE222AE0
:104800007FF47CAE628D92B21AB95A6822F480624B
:10481000ADE694F83E20402A16D120460FB0BDE800
:10482000F040FFF7ECBC002E3FF468AE97057FF533
:1048300065AE212939D1E16A94F83D20212A7FF41F
:104840005DAE628D92B24AB1626A12F8011B1961C3
:104850006262638D013B9BB263854FE608290DD0F0
:1048600020290BD011F5803F08D0596821F4E06170
:1048700059601123236384F83E20B4E75A68204628
:1048800022F4E0625A601A6842F400721A6000234F
:104890002022236384F83D2094F83E2084F83E30A3
:1048A000402AA4D1FFF7AAFC28E6402D7FF426AECB
:1048B000B3E700BFEBFFFEFF1400010001010001A0
:1048C00059680E053FF51AAE450600F0040140F1A7
:1048D0008680500540F18380002940F0838094F861
:1048E0003D20222A7FF40AAEE06A628D92B2032A4A
:1048F00014D91A69636A1A70636A01336362638D3B
:10490000013B9BB26385638D9BB2032B7FF4F6ADB5
:104910002268536823F480635360EFE5E56A022D53
:104920003FF473AF012A3FF670AF0B9146F2A81126
:10493000784A1268B2FBF1F202EB82020B920B9AF8
:10494000013A0B920B99D1B9226C204642F0200219
:1049500022645A6822F4E0625A601A69636A1A7023
:10496000636A01336362638D013B9BB263852023DD
:1049700084F83D3084F83E10FFF79AFCBEE51A68D3
:1049800012F40072DBD1196821F480611960596852
:1049900021F4E06159601969636A1970636A01332F
:1049A0006362638D013B9BB26385202384F83D30B5
:1049B00094F83E3084F83E20402B04D122632046F8
:1049C000FFF775FC9AE5082801D0202801D10023C3
:1049D00000E0122320462363FFF70BFC8EE500293D
:1049E0003FF48CAD92057FF589ADE26A608D616A16
:1049F00080B2042809D15A6822F480625A601B6987
:104A00000B70636A0133636223E7608D80B2032811
:104A10000CD15868042A20F480605860EFD0022A34
:104A2000EDD01A6822F480621A60E8E7608D80B2E7
:104A30000228E4D1042A33D007D8012A07D0022A59
:104A40002ED0186840F4007004E0102AF9D11868DC
:104A500020F4806018601B690B70616A4B1C6362F4
:104A6000638D013B9BB2638523681B694B70636A4E
:104A7000216801336362638D013B9BB263854B68A0
:104A800023F440734B60202384F83D3094F83E308B
:104A9000402B4FF0000384F83E3005D123638EE7AE
:104AA000186840F48060D5E7082A90D0202A8DE766
:104AB000206C10B30025586987072DD596052BD596
:104AC000226C02B19D6994F83D2002F02802282A48
:104AD00016D15A682F0622F480625A604FF0000304
:104AE00085F00401204654BFA289228BC1F38001C6
:104AF00084F83C30FFF780FB00E59D695869DBE7EF
:104B000000220C9259690C919B6984F83C200C930B
:104B10000C9BF3E418000020C60640F1B180950517
:104B200040F1AE8094F83D505A68EDB222F4E06254
:104B30005A6000220D925A690D921A6842F00102E1
:104B40001A600D9A1A6822F480621A605A68100579
:104B500020D505F0F702222A4AD1A06B02685268DC
:104B600092B26285628D92B21AB1226C42F0040256
:104B700022645A6822F400625A60FEF7EBFB0128B7
:104B800008D0A06B794B4363FEF79EFB10B1A06B7E
:104B9000436B9847638D9BB213B323685A695107DF
:104BA00009D51A69636A1A70636A01336362638D97
:104BB000013B9BB2638523685A69520609D51A697D
:104BC000636A1A70636A01336362638D013B9BB24F
:104BD0006385638D9BB21BB1236C43F00403236494
:104BE000236C13B320460FB0BDE8F040FFF7C2BB03
:104BF000606B0268526892B26285628D92B21AB19D
:104C0000226C42F0040222645A6822F400625A6064
:104C1000FEF7A0FB0128BDD0606B544B4363FEF749
:104C200053FB0028B6D0606BB2E72A2D06D1236370
:104C30002823204684F83D30FFF7DDFA94F83D3014
:104C4000282B0CD14A4B2022E36200232046236309
:104C500084F83D2084F83E30FFF7CFFA4EE4236B12
:104C6000222B02D0222D7FF449AC00232022236383
:104C700084F83D2084F83E302046FFF7BCFA3DE43E
:104C800001F0F701212900F0040535D1070627D5E9
:104C9000560525D53DBB94F83D00628DC0B292B259
:104CA000002A3FF42BAC626A12F8015B1D6162625C
:104CB000628D013A92B26285628D92B2002A7FF4CF
:104CC0001DAC29287FF41AAC5A68204622F4806271
:104CD0005A602823216384F83D30FFF78BFA0DE4F6
:104CE000002D3FF40BAC95057FF508AC628D92B2B8
:104CF000002A3FF403ACA7E5400627D5510525D58A
:104D00003DBB94F83D20618DD2B289B200293FF4B9
:104D1000F5AB1969636A1970636A01336362638D65
:104D2000013B9BB26385638D9BB2002B7FF4E6ABA6
:104D30002A2A7FF4E3AB2268536823F4806353602C
:104D400022232363282384F83D3095E7002D3FF488
:104D5000D5AB92057FF5D2AB628D92B2002A3FF4BB
:104D6000CDAB1A69636A1A704BE600BFB542000802
:104D70000000FFFFF8B5036804465F695E6890F8BD
:104D80003E2017F48075D2B20AD016F4807507D091
:104D90006FF4807101255961196841F4004119606F
:104DA000B80506D5F10542BF6FF4007145F0020564
:104DB0005961780536D5F10534D5608D94F83D10EC
:104DC000202AD4F830C080B2C9B25FD100285DD1AA
:104DD00001F0F700212804D0282957D1BCF1210F78
:104DE00054D194F83D20E16AD2B2082901D020299B
:104DF0002AD1282A28D12E4A2046E2625A6822F473
:104E0000E0625A606FF480625A611A6822F480622C
:104E10001A6000232022236384F83D2084F83E306A
:104E2000FFF7EBF93A053FD5F3053DD56FF4006286
:104E3000236845F008055A61236C20462B43236400
:104E4000BDE8F840FFF796BA212A1BD11849E16264
:104E500022630021202284F83D2084F83E105A6805
:104E600022F4E0625A606FF480625A611A6822F498
:104E700080621A605A69100648BF19612046FFF720
:104E8000B9F9CFE76FF480625A61CBE76FF48061C4
:104E9000102A596145F0040501D0402AC2D11A6890
:104EA00042F400721A60BDE7002DC5D1F8BD00BF05
:104EB0000000FFFFF8B50446E0B190F8913203F02E
:104EC000FF021BB980F8902205F00AF9032384F849
:104ED000913200232546637155F8040B02F044F823
:104EE00095E80E00206802F02FF8014628B1022351
:104EF00084F8913201252846F8BD206802F03EF87A
:104F00000028F4D102460127267904F11003C1B22A
:104F10008E4203F1280318D800210A4604F5A8732D
:104F2000C8B2864203F128031BD895E80E0020681A
:104F300002F026F805460028D9D1012360732068C5
:104F400084F8913202F0D2FAD5E743E9062203F859
:104F5000277C03F8281C03F8252C43F8102C01307B
:104F6000D5E743E9062203F8272C03F8280C03F8B9
:104F7000252C43F8102C0131D2E738B590F8903247
:104F80000446012B10D0012580F89052006801F0F2
:104F9000E2FF2946204605F0B2F9206802F0A4FAA3
:104FA000002084F8900238BD0220FCE710B590F88C
:104FB00090220446012A0AD00122417380F89022EF
:104FC000006802F08BFA002084F8900210BD0220E5
:104FD000FCE700002DE9F04F044685B0006802F0C0
:104FE00087FA10F4004500F04F842825C64E20684B
:104FF000B0F844301F0402D405B0BDE8F08FB0F81B
:10500000443013F00F0799B240F0C08011F0100146
:1050100026D103889BB2334043F400430380B0F8A9
:105020005030227C9BB203EBC20300EB4303B3F886
:105030000434626AC3F309031A44E36220466262DD
:1050400005F085F8637B002BD1D0A26A2168002A85
:10505000CDD1637B43F08003A1F84C306273C6E787
:105060000788BBB217F4006721D0B0F8503094F82D
:1050700050219BB203EBC20300EB4303B3F80C34A3
:10508000B4F85621C3F30903C4F86C3104F5267152
:1050900002F079FC22682046138823F070031B0578
:1050A0001B0D43F08003138005F042F89FE71904BD
:1050B0009DD5038823F070031B051B0D43F080036F
:1050C0000380B0F8503094F850219BB203EBC20338
:1050D00000EB4303B3F80C34C3F30903C4F86C3199
:1050E0008BB1D4F8641171B1B4F8562102F04BFCC5
:1050F000D4F86431D4F86C21394613442046C4F8FE
:10510000643105F01BF821680A8893B212053FF557
:105110006EAF03F44053B3F5405F3FF468AFB1F8AE
:10512000502001F20C4092B2835AC3F30903835218
:10513000D4F860313E2B1DD95F09DB06835A08BFC6
:1051400007F1FF379BB243EA87236FEA43436FEAD5
:1051500053439BB283520B8823F4804323F07003A4
:105160001B041B0C83F4405343F4004343F08003BF
:105170000B803CE70BB9835AE7E75F08DB07835AEC
:1051800048BF01379BB243EA8723E2E730F8273074
:1051900019041FFA83F840F1F68030F8273005FB38
:1051A000074123F070031B051B0D43F0800320F81B
:1051B000273091F85C3100F5806EBBB9B0F8503003
:1051C00091F850219BB2063303EBC2033EF81390D3
:1051D000C9F30909B9F1000F00F0BA804B46B1F8E4
:1051E0005621D1F8641102F0CEFBB1E091F85331B1
:1051F00091F85021022B40F08980B0F850904FEA8E
:10520000C20B1FFA89F918F4804AD1F86831D944E1
:1052100008F0400C3CD009F102093EF81990C9F39E
:105220000909994513D90023C1F8683130F82230B3
:1052300023F4804323F070031B041B0C83F40053FE
:1052400043F4004343F0800320F8223005E0A3EB51
:105250000903C1F86831002BE8D0BCF1000F0DD074
:1052600030F8223023F4E04323F070031B041B0CBE
:1052700043F4004343F0C00320F82230B9F1000F9B
:1052800066D0282101FB07414B46B1F85821A8E719
:1052900009F106093EF81990C9F30909994512D98F
:1052A000C1F868A130F8223023F4804323F0700362
:1052B0001B041B0C83F4005343F4004343F08003AE
:1052C00020F8223005E0A3EB0903C1F86831002B78
:1052D000E8D0BCF1000F0DD130F8223023F4E043C8
:1052E00023F070031B041B0C43F4004343F0C00382
:1052F00020F82230B9F1000F2AD0282101FB074104
:105300004B46B1F85A216CE70F8FFFFF30F822307F
:1053100023F4E04323F070031B041B0C43F400430D
:1053200043F0C00320F8223091F8503130F82320A8
:10533000DB0012F4804FB0F8502092B254D0023209
:1053400013443EF81390C9F30909B9F1000F9BD13A
:1053500005FB07F16318D3F86C214A44C3F86C21AC
:10536000D3F864214A44C3F86421D3F868211AB100
:10537000D3F86031994541D205FB0743204693F8A5
:10538000501104F0DBFE18F0800F20683FF42FAEC0
:1053900030F8273005FB07FC9BB2334043F4004351
:1053A00020F8273004EB0C03DA7C012A56D10021C7
:1053B00007FB0552A1501A7F92B318F040085A7C9F
:1053C00036D012BBB0F850201B7C92B21B0100F209
:1053D000044010441A5AC2F309021A521A5A92B2DD
:1053E00042F400421A521BE0063213443EF8139076
:1053F000C9F30909B9F1000FAAD081E701F5A87135
:105400002068214402F08AF8BDE7012A08D1B0F8EB
:1054100050201B7C92B200F204401B011044195230
:10542000282303FB0743197C204604F090FEDEE5A9
:105430003AB9B0F850201B7C92B21B0100F20C402C
:10544000C7E7012AECD1B0F850201B7C92B200F2E1
:105450000C401B01104423F80080E1E7197C18F48C
:10546000807E9A6A4FEAC10A00F580691BD1B0F8C4
:105470005070BFB25744023739F81770C7F30907A5
:10548000974202D3C3F828E0CEE7D21B9A625A6A49
:105490000CF110013A445A62DA6A21443A44DA6261
:1054A00002F03CF8A3E5B0F850C018F0400E1FFA27
:1054B0008CFCD44408F4804800F0F4800CF1020C19
:1054C00039F81CC01FFA88F8CCF3090C94452CBF9E
:1054D0000022A2EB0C029A62002A5BD1282303FB74
:1054E00007435B7C002B41D1B0F8502000F2044C04
:1054F00092B20B0194443CF80320C2F309022CF849
:1055000003203CF803206FEA42426FEA524292B213
:105510002CF80320B0F8502000F20C4092B2104456
:10552000C25AC2F30902C252C25A6FEA42426FEA39
:10553000524292B2C252204604F009FEB8F1000F66
:1055400000F0F480282303FB07432268197C32F81B
:10555000213023F4E04323F070031B041B0C43F4BD
:10556000404343F0800322F82130DFE0012BE2D1F9
:10557000B0F850E000F2044C1FFA8EFEF4440B0128
:105580002CF80320B0F850C000F20C401FFA8CFC3D
:105590006044CFE7B8F1000F0DD030F8212022F49D
:1055A000E04222F070021204120C42F4404242F037
:1055B000800220F821204FF0280808FB074898F8BF
:1055C0003420012A40F0B280D8F8242002EB0C0EDF
:1055D000C8F824E0DA6A6244DA62D8F83030D8F8E1
:1055E0002020934235D39B1AC8F83030282303FB80
:1055F000074393F811C093B2BCF1000F45D1B0F846
:10560000508000F2044C1FFA88F8C44409013CF8A9
:1056100001803E2AC8F309082CF8018025D94FEAF9
:105620005218D2063CF8012008BF08F1FF3892B2A8
:1056300042EA88226FEA42426FEA524292B22CF862
:105640000120282202FB0742128B714601F056FF0F
:105650006CE01BB9624688F83430C7E7002288F84E
:105660003420C8F830201A46C0E712B93CF80120AF
:10567000E0E74FEA5208D2073CF8012048BF08F1A2
:10568000010892B242EA8822D8E7BCF1010FD8D1D2
:10569000B0F850C000F204421FFA8CFC62440901C9
:1056A0005352CEE70CF1060C39F81CC01FFA88F8EB
:1056B000CCF3090C94458CBF7246A2EB0C029A62A3
:1056C000002A5DD1282303FB07435B7C002B43D1D9
:1056D000B0F8502000F2044C92B20B0194443CF814
:1056E0000320C2F309022CF803203CF803206FEAE0
:1056F00042426FEA524292B22CF80320B0F8502096
:1057000000F20C4092B21044C25AC2F30902C252D3
:10571000C25A6FEA42426FEA524292B2C2522046E5
:1057200004F015FDB8F1000F3FF40CAF282303FB84
:1057300007432268197C32F8213023F4E04323F038
:1057400040031B041B0C83F0300343F4004343F07D
:10575000800322F821304AE4012BE0D1B0F850E078
:1057600000F2044C1FFA8EFEF4440B012CF80320C7
:10577000B0F850C000F20C401FFA8CFC6044CDE73A
:10578000B8F1000F0DD130F8212022F4E04222F0D0
:1057900070021204120C42F4404242F0800220F8DF
:1057A00021204FF0280808FB074898F83420012AE8
:1057B000BCD1D8F8242002EB0C0EC8F824E0DA6A39
:1057C0006244DA62D8F83030D8F82020934232D3DD
:1057D0009B1AC8F83030282303FB074393F811C005
:1057E00093B2BCF1000F42D1B0F8508000F20C4CE3
:1057F0001FFA88F8C44409013CF801803E2AC8F326
:1058000009082CF8018022D94FEA5218D2063CF838
:10581000012008BF08F1FF3892B242EA88226FEAFD
:1058200042426FEA524292B22CF80120282202FB37
:105830000742528B09E71BB9624688F83430CAE741
:105840000022C8F8302088F834201A46C3E712B97D
:105850003CF80120E3E74FEA5208D2073CF8012068
:1058600048BF08F1010892B242EA8822DBE7BCF1A6
:10587000010FDBD1B0F8502000F20C4C92B29444EE
:105880000A012CF80230D1E7460512D522682046DD
:10589000B2F8443023F480631B041B0CA2F844309C
:1058A00004F061FC2946204605B0BDE8F04FFFF743
:1058B0007DBB41040AD52268B2F8443023F480430A
:1058C0001B041B0CA2F84430FFF796BB820405D5DD
:1058D0002268B2F8443023F40053F1E7C30419D529
:1058E00022682046B2F8403023F004031B041B0C4E
:1058F000A2F84030B2F8403023F008031B041B0C20
:10590000A2F8403004F052FC2268B2F8443023F48C
:105910008053D5E7070548D56846236806461946EB
:105920001A4603F1200532F8047B954226F8027BE3
:10593000F9D1B3F8402092B242F00102A3F840201E
:10594000B3F8402022F001021204120CA3F8402008
:10595000B3F844205605FBD5B3F8442022F4806206
:105960001204120CA3F8442030F8022B21F8042B67
:105970008D42F9D1B3F84020204692B242F008029D
:10598000A3F84020B3F8442022F400621204120C61
:10599000A3F84420B3F8402092B242F00402A3F8E6
:1059A000402004F0F3FBFFF727BB82050DD52268EA
:1059B0002046B2F8443023F400731B041B0CA2F8F9
:1059C000443004F0CCFBFFF717BBC3057FF514ABE5
:1059D0002268B2F8443023F4807371E770B528244C
:1059E000054601F00700444311F0800F14BF04F195
:1059F000100104F5A87105EB040615BF012400246D
:105A0000747486F8514114BF49194919022BCB709F
:105A100008BF0023087008BF0B710A6195F8903227
:105A2000012B09D00123286885F8903201F0BAFAD9
:105A3000002085F8900270BD0220FCE7282301F0C9
:105A40000702534311F0800F10B5044618BF03F14D
:105A5000100118440BBF03F5A87101230023091995
:105A60000ABF0919437480F851310A7094F89032D2
:105A7000012B09D00123206884F8903201F0F2FB59
:105A8000002084F8900210BD0220FCE770B52824A5
:105A9000002601F007014C43051985F8501104F563
:105AA000A8710144C5E95923C5F86C6185F85161B5
:105AB000006801F033FD304670BD282301F0070176
:105AC00003FB0100D0F86C01704770B5282501F088
:105AD00007014D4344190026C4E90923012221741A
